{
	"tips.sol": {
		"Inheritance": {
			"abi": [
				{
					"inputs": [],
					"stateMutability": "nonpayable",
					"type": "constructor"
				},
				{
					"anonymous": false,
					"inputs": [
						{
							"indexed": false,
							"internalType": "address",
							"name": "heir",
							"type": "address"
						},
						{
							"indexed": false,
							"internalType": "uint256",
							"name": "share",
							"type": "uint256"
						}
					],
					"name": "HeirAdded",
					"type": "event"
				},
				{
					"anonymous": false,
					"inputs": [],
					"name": "InheritanceDistributed",
					"type": "event"
				},
				{
					"anonymous": false,
					"inputs": [
						{
							"indexed": false,
							"internalType": "uint256",
							"name": "amount",
							"type": "uint256"
						}
					],
					"name": "InheritanceSet",
					"type": "event"
				},
				{
					"inputs": [
						{
							"internalType": "address",
							"name": "_heir",
							"type": "address"
						},
						{
							"internalType": "uint256",
							"name": "_share",
							"type": "uint256"
						}
					],
					"name": "addHeir",
					"outputs": [],
					"stateMutability": "nonpayable",
					"type": "function"
				},
				{
					"inputs": [],
					"name": "distributeInheritance",
					"outputs": [],
					"stateMutability": "nonpayable",
					"type": "function"
				},
				{
					"inputs": [
						{
							"internalType": "address",
							"name": "",
							"type": "address"
						}
					],
					"name": "heirs",
					"outputs": [
						{
							"internalType": "uint256",
							"name": "",
							"type": "uint256"
						}
					],
					"stateMutability": "view",
					"type": "function"
				},
				{
					"inputs": [
						{
							"internalType": "uint256",
							"name": "",
							"type": "uint256"
						}
					],
					"name": "heirsList",
					"outputs": [
						{
							"internalType": "address",
							"name": "",
							"type": "address"
						}
					],
					"stateMutability": "view",
					"type": "function"
				},
				{
					"inputs": [],
					"name": "owner",
					"outputs": [
						{
							"internalType": "address",
							"name": "",
							"type": "address"
						}
					],
					"stateMutability": "view",
					"type": "function"
				},
				{
					"inputs": [
						{
							"internalType": "uint256",
							"name": "_amount",
							"type": "uint256"
						}
					],
					"name": "setInheritance",
					"outputs": [],
					"stateMutability": "nonpayable",
					"type": "function"
				},
				{
					"inputs": [],
					"name": "totalInheritance",
					"outputs": [
						{
							"internalType": "uint256",
							"name": "",
							"type": "uint256"
						}
					],
					"stateMutability": "view",
					"type": "function"
				},
				{
					"stateMutability": "payable",
					"type": "receive"
				}
			],
			"devdoc": {
				"kind": "dev",
				"methods": {},
				"version": 1
			},
			"evm": {
				"assembly": "    /* \"tips.sol\":60:1696  contract Inheritance {... */\n  mstore(0x40, 0x80)\n    /* \"tips.sol\":482:606  constructor() {... */\n  callvalue\n  dup1\n  iszero\n  tag_1\n  jumpi\n  0x00\n  dup1\n  revert\ntag_1:\n  pop\n    /* \"tips.sol\":515:525  msg.sender */\n  caller\n    /* \"tips.sol\":507:512  owner */\n  0x00\n  dup1\n    /* \"tips.sol\":507:525  owner = msg.sender */\n  0x0100\n  exp\n  dup2\n  sload\n  dup2\n  0xffffffffffffffffffffffffffffffffffffffff\n  mul\n  not\n  and\n  swap1\n  dup4\n  0xffffffffffffffffffffffffffffffffffffffff\n  and\n  mul\n  or\n  swap1\n  sstore\n  pop\n    /* \"tips.sol\":60:1696  contract Inheritance {... */\n  dataSize(sub_0)\n  dup1\n  dataOffset(sub_0)\n  0x00\n  codecopy\n  0x00\n  return\nstop\n\nsub_0: assembly {\n        /* \"tips.sol\":60:1696  contract Inheritance {... */\n      mstore(0x40, 0x80)\n      jumpi(tag_1, lt(calldatasize, 0x04))\n      shr(0xe0, calldataload(0x00))\n      dup1\n      0x8da5cb5b\n      gt\n      tag_10\n      jumpi\n      dup1\n      0x8da5cb5b\n      eq\n      tag_6\n      jumpi\n      dup1\n      0x9cdd47f2\n      eq\n      tag_7\n      jumpi\n      dup1\n      0xaefad0b2\n      eq\n      tag_8\n      jumpi\n      dup1\n      0xf45b587c\n      eq\n      tag_9\n      jumpi\n      jump(tag_2)\n    tag_10:\n      dup1\n      0x14c7f2e9\n      eq\n      tag_3\n      jumpi\n      dup1\n      0x53a41b50\n      eq\n      tag_4\n      jumpi\n      dup1\n      0x80369a9b\n      eq\n      tag_5\n      jumpi\n      jump(tag_2)\n    tag_1:\n      jumpi(tag_2, calldatasize)\n      stop\n    tag_2:\n      0x00\n      dup1\n      revert\n        /* \"tips.sol\":614:753  function setInheritance(uint _amount) public onlyOwner {... */\n    tag_3:\n      callvalue\n      dup1\n      iszero\n      tag_13\n      jumpi\n      0x00\n      dup1\n      revert\n    tag_13:\n      pop\n      tag_14\n      0x04\n      dup1\n      calldatasize\n      sub\n      dup2\n      add\n      swap1\n      tag_15\n      swap2\n      swap1\n      tag_16\n      jump\t// in\n    tag_15:\n      tag_17\n      jump\t// in\n    tag_14:\n      stop\n        /* \"tips.sol\":1071:1656  function distributeInheritance() public onlyOwner {... */\n    tag_4:\n      callvalue\n      dup1\n      iszero\n      tag_18\n      jumpi\n      0x00\n      dup1\n      revert\n    tag_18:\n      pop\n      tag_19\n      tag_20\n      jump\t// in\n    tag_19:\n      stop\n        /* \"tips.sol\":115:143  uint public totalInheritance */\n    tag_5:\n      callvalue\n      dup1\n      iszero\n      tag_21\n      jumpi\n      0x00\n      dup1\n      revert\n    tag_21:\n      pop\n      tag_22\n      tag_23\n      jump\t// in\n    tag_22:\n      mload(0x40)\n      tag_24\n      swap2\n      swap1\n      tag_25\n      jump\t// in\n    tag_24:\n      mload(0x40)\n      dup1\n      swap2\n      sub\n      swap1\n      return\n        /* \"tips.sol\":88:108  address public owner */\n    tag_6:\n      callvalue\n      dup1\n      iszero\n      tag_26\n      jumpi\n      0x00\n      dup1\n      revert\n    tag_26:\n      pop\n      tag_27\n      tag_28\n      jump\t// in\n    tag_27:\n      mload(0x40)\n      tag_29\n      swap2\n      swap1\n      tag_30\n      jump\t// in\n    tag_29:\n      mload(0x40)\n      dup1\n      swap2\n      sub\n      swap1\n      return\n        /* \"tips.sol\":761:1063  function addHeir(address _heir, uint _share) public onlyOwner {... */\n    tag_7:\n      callvalue\n      dup1\n      iszero\n      tag_31\n      jumpi\n      0x00\n      dup1\n      revert\n    tag_31:\n      pop\n      tag_32\n      0x04\n      dup1\n      calldatasize\n      sub\n      dup2\n      add\n      swap1\n      tag_33\n      swap2\n      swap1\n      tag_34\n      jump\t// in\n    tag_33:\n      tag_35\n      jump\t// in\n    tag_32:\n      stop\n        /* \"tips.sol\":194:220  address[] public heirsList */\n    tag_8:\n      callvalue\n      dup1\n      iszero\n      tag_36\n      jumpi\n      0x00\n      dup1\n      revert\n    tag_36:\n      pop\n      tag_37\n      0x04\n      dup1\n      calldatasize\n      sub\n      dup2\n      add\n      swap1\n      tag_38\n      swap2\n      swap1\n      tag_16\n      jump\t// in\n    tag_38:\n      tag_39\n      jump\t// in\n    tag_37:\n      mload(0x40)\n      tag_40\n      swap2\n      swap1\n      tag_30\n      jump\t// in\n    tag_40:\n      mload(0x40)\n      dup1\n      swap2\n      sub\n      swap1\n      return\n        /* \"tips.sol\":150:187  mapping(address => uint) public heirs */\n    tag_9:\n      callvalue\n      dup1\n      iszero\n      tag_41\n      jumpi\n      0x00\n      dup1\n      revert\n    tag_41:\n      pop\n      tag_42\n      0x04\n      dup1\n      calldatasize\n      sub\n      dup2\n      add\n      swap1\n      tag_43\n      swap2\n      swap1\n      tag_44\n      jump\t// in\n    tag_43:\n      tag_45\n      jump\t// in\n    tag_42:\n      mload(0x40)\n      tag_46\n      swap2\n      swap1\n      tag_25\n      jump\t// in\n    tag_46:\n      mload(0x40)\n      dup1\n      swap2\n      sub\n      swap1\n      return\n        /* \"tips.sol\":614:753  function setInheritance(uint _amount) public onlyOwner {... */\n    tag_17:\n        /* \"tips.sol\":410:415  owner */\n      0x00\n      dup1\n      sload\n      swap1\n      0x0100\n      exp\n      swap1\n      div\n      0xffffffffffffffffffffffffffffffffffffffff\n      and\n        /* \"tips.sol\":396:415  msg.sender == owner */\n      0xffffffffffffffffffffffffffffffffffffffff\n      and\n        /* \"tips.sol\":396:406  msg.sender */\n      caller\n        /* \"tips.sol\":396:415  msg.sender == owner */\n      0xffffffffffffffffffffffffffffffffffffffff\n      and\n      eq\n        /* \"tips.sol\":388:454  require(msg.sender == owner, \"Only owner can call this function.\") */\n      tag_48\n      jumpi\n      mload(0x40)\n      0x08c379a000000000000000000000000000000000000000000000000000000000\n      dup2\n      mstore\n      0x04\n      add\n      tag_49\n      swap1\n      tag_50\n      jump\t// in\n    tag_49:\n      mload(0x40)\n      dup1\n      swap2\n      sub\n      swap1\n      revert\n    tag_48:\n        /* \"tips.sol\":699:706  _amount */\n      dup1\n        /* \"tips.sol\":680:696  totalInheritance */\n      0x01\n        /* \"tips.sol\":680:706  totalInheritance = _amount */\n      dup2\n      swap1\n      sstore\n      pop\n        /* \"tips.sol\":722:745  InheritanceSet(_amount) */\n      0x56a75606e7d8b5c7b0884e9333a0d7cf41e8674a0870ff1174fe06019a8ecdcf\n        /* \"tips.sol\":737:744  _amount */\n      dup2\n        /* \"tips.sol\":722:745  InheritanceSet(_amount) */\n      mload(0x40)\n      tag_52\n      swap2\n      swap1\n      tag_25\n      jump\t// in\n    tag_52:\n      mload(0x40)\n      dup1\n      swap2\n      sub\n      swap1\n      log1\n        /* \"tips.sol\":614:753  function setInheritance(uint _amount) public onlyOwner {... */\n      pop\n      jump\t// out\n        /* \"tips.sol\":1071:1656  function distributeInheritance() public onlyOwner {... */\n    tag_20:\n        /* \"tips.sol\":410:415  owner */\n      0x00\n      dup1\n      sload\n      swap1\n      0x0100\n      exp\n      swap1\n      div\n      0xffffffffffffffffffffffffffffffffffffffff\n      and\n        /* \"tips.sol\":396:415  msg.sender == owner */\n      0xffffffffffffffffffffffffffffffffffffffff\n      and\n        /* \"tips.sol\":396:406  msg.sender */\n      caller\n        /* \"tips.sol\":396:415  msg.sender == owner */\n      0xffffffffffffffffffffffffffffffffffffffff\n      and\n      eq\n        /* \"tips.sol\":388:454  require(msg.sender == owner, \"Only owner can call this function.\") */\n      tag_54\n      jumpi\n      mload(0x40)\n      0x08c379a000000000000000000000000000000000000000000000000000000000\n      dup2\n      mstore\n      0x04\n      add\n      tag_55\n      swap1\n      tag_50\n      jump\t// in\n    tag_55:\n      mload(0x40)\n      dup1\n      swap2\n      sub\n      swap1\n      revert\n    tag_54:\n        /* \"tips.sol\":1159:1160  0 */\n      0x00\n        /* \"tips.sol\":1140:1156  totalInheritance */\n      sload(0x01)\n        /* \"tips.sol\":1140:1160  totalInheritance > 0 */\n      gt\n        /* \"tips.sol\":1132:1195  require(totalInheritance > 0, \"Total inheritance must be set.\") */\n      tag_57\n      jumpi\n      mload(0x40)\n      0x08c379a000000000000000000000000000000000000000000000000000000000\n      dup2\n      mstore\n      0x04\n      add\n      tag_58\n      swap1\n      tag_59\n      jump\t// in\n    tag_58:\n      mload(0x40)\n      dup1\n      swap2\n      sub\n      swap1\n      revert\n    tag_57:\n        /* \"tips.sol\":1213:1219  uint i */\n      0x00\n        /* \"tips.sol\":1208:1502  for (uint i = 0; i < heirsList.length; i++) {... */\n    tag_60:\n        /* \"tips.sol\":1229:1238  heirsList */\n      0x03\n        /* \"tips.sol\":1229:1245  heirsList.length */\n      dup1\n      sload\n      swap1\n      pop\n        /* \"tips.sol\":1225:1226  i */\n      dup2\n        /* \"tips.sol\":1225:1245  i < heirsList.length */\n      lt\n        /* \"tips.sol\":1208:1502  for (uint i = 0; i < heirsList.length; i++) {... */\n      iszero\n      tag_61\n      jumpi\n        /* \"tips.sol\":1267:1279  address heir */\n      0x00\n        /* \"tips.sol\":1282:1291  heirsList */\n      0x03\n        /* \"tips.sol\":1292:1293  i */\n      dup3\n        /* \"tips.sol\":1282:1294  heirsList[i] */\n      dup2\n      sload\n      dup2\n      lt\n      tag_63\n      jumpi\n      tag_64\n      tag_65\n      jump\t// in\n    tag_64:\n    tag_63:\n      swap1\n      0x00\n      mstore\n      keccak256(0x00, 0x20)\n      add\n      0x00\n      swap1\n      sload\n      swap1\n      0x0100\n      exp\n      swap1\n      div\n      0xffffffffffffffffffffffffffffffffffffffff\n      and\n        /* \"tips.sol\":1267:1294  address heir = heirsList[i] */\n      swap1\n      pop\n        /* \"tips.sol\":1309:1319  uint share */\n      0x00\n        /* \"tips.sol\":1322:1327  heirs */\n      0x02\n        /* \"tips.sol\":1322:1333  heirs[heir] */\n      0x00\n        /* \"tips.sol\":1328:1332  heir */\n      dup4\n        /* \"tips.sol\":1322:1333  heirs[heir] */\n      0xffffffffffffffffffffffffffffffffffffffff\n      and\n      0xffffffffffffffffffffffffffffffffffffffff\n      and\n      dup2\n      mstore\n      0x20\n      add\n      swap1\n      dup2\n      mstore\n      0x20\n      add\n      0x00\n      keccak256\n      sload\n        /* \"tips.sol\":1309:1333  uint share = heirs[heir] */\n      swap1\n      pop\n        /* \"tips.sol\":1360:1361  0 */\n      0x00\n        /* \"tips.sol\":1352:1357  share */\n      dup2\n        /* \"tips.sol\":1352:1361  share > 0 */\n      gt\n        /* \"tips.sol\":1348:1491  if (share > 0) {... */\n      iszero\n      tag_67\n      jumpi\n        /* \"tips.sol\":1382:1393  uint amount */\n      0x00\n        /* \"tips.sol\":1423:1426  100 */\n      0x64\n        /* \"tips.sol\":1415:1420  share */\n      dup3\n        /* \"tips.sol\":1396:1412  totalInheritance */\n      sload(0x01)\n        /* \"tips.sol\":1396:1420  totalInheritance * share */\n      tag_68\n      swap2\n      swap1\n      tag_69\n      jump\t// in\n    tag_68:\n        /* \"tips.sol\":1396:1426  totalInheritance * share / 100 */\n      tag_70\n      swap2\n      swap1\n      tag_71\n      jump\t// in\n    tag_70:\n        /* \"tips.sol\":1382:1426  uint amount = totalInheritance * share / 100 */\n      swap1\n      pop\n        /* \"tips.sol\":1453:1457  heir */\n      dup3\n        /* \"tips.sol\":1445:1467  payable(heir).transfer */\n      0xffffffffffffffffffffffffffffffffffffffff\n      and\n        /* \"tips.sol\":1445:1475  payable(heir).transfer(amount) */\n      0x08fc\n        /* \"tips.sol\":1468:1474  amount */\n      dup3\n        /* \"tips.sol\":1445:1475  payable(heir).transfer(amount) */\n      swap1\n      dup2\n      iszero\n      mul\n      swap1\n      mload(0x40)\n      0x00\n      mload(0x40)\n      dup1\n      dup4\n      sub\n      dup2\n      dup6\n      dup9\n      dup9\n      call\n      swap4\n      pop\n      pop\n      pop\n      pop\n      iszero\n      dup1\n      iszero\n      tag_73\n      jumpi\n      returndatasize\n      0x00\n      dup1\n      returndatacopy\n      revert(0x00, returndatasize)\n    tag_73:\n      pop\n        /* \"tips.sol\":1363:1491  {... */\n      pop\n        /* \"tips.sol\":1348:1491  if (share > 0) {... */\n    tag_67:\n        /* \"tips.sol\":1252:1502  {... */\n      pop\n      pop\n        /* \"tips.sol\":1247:1250  i++ */\n      dup1\n      dup1\n      0x01\n      add\n      swap2\n      pop\n      pop\n        /* \"tips.sol\":1208:1502  for (uint i = 0; i < heirsList.length; i++) {... */\n      jump(tag_60)\n    tag_61:\n      pop\n        /* \"tips.sol\":1517:1541  InheritanceDistributed() */\n      0x7bfb78e8a6c87b77bc7ad47ee02092f528a4b0e762784170f0bc3ed1a4a4a084\n      mload(0x40)\n      mload(0x40)\n      dup1\n      swap2\n      sub\n      swap1\n      log1\n        /* \"tips.sol\":1571:1572  0 */\n      0x00\n        /* \"tips.sol\":1552:1568  totalInheritance */\n      0x01\n        /* \"tips.sol\":1552:1572  totalInheritance = 0 */\n      dup2\n      swap1\n      sstore\n      pop\n        /* \"tips.sol\":1071:1656  function distributeInheritance() public onlyOwner {... */\n      jump\t// out\n        /* \"tips.sol\":115:143  uint public totalInheritance */\n    tag_23:\n      sload(0x01)\n      dup2\n      jump\t// out\n        /* \"tips.sol\":88:108  address public owner */\n    tag_28:\n      0x00\n      dup1\n      sload\n      swap1\n      0x0100\n      exp\n      swap1\n      div\n      0xffffffffffffffffffffffffffffffffffffffff\n      and\n      dup2\n      jump\t// out\n        /* \"tips.sol\":761:1063  function addHeir(address _heir, uint _share) public onlyOwner {... */\n    tag_35:\n        /* \"tips.sol\":410:415  owner */\n      0x00\n      dup1\n      sload\n      swap1\n      0x0100\n      exp\n      swap1\n      div\n      0xffffffffffffffffffffffffffffffffffffffff\n      and\n        /* \"tips.sol\":396:415  msg.sender == owner */\n      0xffffffffffffffffffffffffffffffffffffffff\n      and\n        /* \"tips.sol\":396:406  msg.sender */\n      caller\n        /* \"tips.sol\":396:415  msg.sender == owner */\n      0xffffffffffffffffffffffffffffffffffffffff\n      and\n      eq\n        /* \"tips.sol\":388:454  require(msg.sender == owner, \"Only owner can call this function.\") */\n      tag_75\n      jumpi\n      mload(0x40)\n      0x08c379a000000000000000000000000000000000000000000000000000000000\n      dup2\n      mstore\n      0x04\n      add\n      tag_76\n      swap1\n      tag_50\n      jump\t// in\n    tag_76:\n      mload(0x40)\n      dup1\n      swap2\n      sub\n      swap1\n      revert\n    tag_75:\n        /* \"tips.sol\":851:852  0 */\n      0x00\n        /* \"tips.sol\":842:848  _share */\n      dup2\n        /* \"tips.sol\":842:852  _share > 0 */\n      gt\n        /* \"tips.sol\":834:889  require(_share > 0, \"Share must be greater than zero.\") */\n      tag_78\n      jumpi\n      mload(0x40)\n      0x08c379a000000000000000000000000000000000000000000000000000000000\n      dup2\n      mstore\n      0x04\n      add\n      tag_79\n      swap1\n      tag_80\n      jump\t// in\n    tag_79:\n      mload(0x40)\n      dup1\n      swap2\n      sub\n      swap1\n      revert\n    tag_78:\n        /* \"tips.sol\":924:925  0 */\n      0x00\n        /* \"tips.sol\":908:913  heirs */\n      0x02\n        /* \"tips.sol\":908:920  heirs[_heir] */\n      0x00\n        /* \"tips.sol\":914:919  _heir */\n      dup5\n        /* \"tips.sol\":908:920  heirs[_heir] */\n      0xffffffffffffffffffffffffffffffffffffffff\n      and\n      0xffffffffffffffffffffffffffffffffffffffff\n      and\n      dup2\n      mstore\n      0x20\n      add\n      swap1\n      dup2\n      mstore\n      0x20\n      add\n      0x00\n      keccak256\n      sload\n        /* \"tips.sol\":908:925  heirs[_heir] == 0 */\n      eq\n        /* \"tips.sol\":900:949  require(heirs[_heir] == 0, \"Heir already added.\") */\n      tag_81\n      jumpi\n      mload(0x40)\n      0x08c379a000000000000000000000000000000000000000000000000000000000\n      dup2\n      mstore\n      0x04\n      add\n      tag_82\n      swap1\n      tag_83\n      jump\t// in\n    tag_82:\n      mload(0x40)\n      dup1\n      swap2\n      sub\n      swap1\n      revert\n    tag_81:\n        /* \"tips.sol\":977:983  _share */\n      dup1\n        /* \"tips.sol\":962:967  heirs */\n      0x02\n        /* \"tips.sol\":962:974  heirs[_heir] */\n      0x00\n        /* \"tips.sol\":968:973  _heir */\n      dup5\n        /* \"tips.sol\":962:974  heirs[_heir] */\n      0xffffffffffffffffffffffffffffffffffffffff\n      and\n      0xffffffffffffffffffffffffffffffffffffffff\n      and\n      dup2\n      mstore\n      0x20\n      add\n      swap1\n      dup2\n      mstore\n      0x20\n      add\n      0x00\n      keccak256\n        /* \"tips.sol\":962:983  heirs[_heir] = _share */\n      dup2\n      swap1\n      sstore\n      pop\n        /* \"tips.sol\":994:1003  heirsList */\n      0x03\n        /* \"tips.sol\":1009:1014  _heir */\n      dup3\n        /* \"tips.sol\":994:1015  heirsList.push(_heir) */\n      swap1\n      dup1\n      0x01\n      dup2\n      sload\n      add\n      dup1\n      dup3\n      sstore\n      dup1\n      swap2\n      pop\n      pop\n      0x01\n      swap1\n      sub\n      swap1\n      0x00\n      mstore\n      keccak256(0x00, 0x20)\n      add\n      0x00\n      swap1\n      swap2\n      swap1\n      swap2\n      swap1\n      swap2\n      0x0100\n      exp\n      dup2\n      sload\n      dup2\n      0xffffffffffffffffffffffffffffffffffffffff\n      mul\n      not\n      and\n      swap1\n      dup4\n      0xffffffffffffffffffffffffffffffffffffffff\n      and\n      mul\n      or\n      swap1\n      sstore\n      pop\n        /* \"tips.sol\":1031:1055  HeirAdded(_heir, _share) */\n      0x53ecd725315076d49de41e105a400b4659b4eb2060f6677e74e2a4cb645b4785\n        /* \"tips.sol\":1041:1046  _heir */\n      dup3\n        /* \"tips.sol\":1048:1054  _share */\n      dup3\n        /* \"tips.sol\":1031:1055  HeirAdded(_heir, _share) */\n      mload(0x40)\n      tag_85\n      swap3\n      swap2\n      swap1\n      tag_86\n      jump\t// in\n    tag_85:\n      mload(0x40)\n      dup1\n      swap2\n      sub\n      swap1\n      log1\n        /* \"tips.sol\":761:1063  function addHeir(address _heir, uint _share) public onlyOwner {... */\n      pop\n      pop\n      jump\t// out\n        /* \"tips.sol\":194:220  address[] public heirsList */\n    tag_39:\n      0x03\n      dup2\n      dup2\n      sload\n      dup2\n      lt\n      tag_87\n      jumpi\n      0x00\n      dup1\n      revert\n    tag_87:\n      swap1\n      0x00\n      mstore\n      keccak256(0x00, 0x20)\n      add\n      0x00\n      swap2\n      pop\n      sload\n      swap1\n      0x0100\n      exp\n      swap1\n      div\n      0xffffffffffffffffffffffffffffffffffffffff\n      and\n      dup2\n      jump\t// out\n        /* \"tips.sol\":150:187  mapping(address => uint) public heirs */\n    tag_45:\n      mstore(0x20, 0x02)\n      dup1\n      0x00\n      mstore\n      keccak256(0x00, 0x40)\n      0x00\n      swap2\n      pop\n      swap1\n      pop\n      sload\n      dup2\n      jump\t// out\n        /* \"#utility.yul\":88:205   */\n    tag_90:\n        /* \"#utility.yul\":197:198   */\n      0x00\n        /* \"#utility.yul\":194:195   */\n      dup1\n        /* \"#utility.yul\":187:199   */\n      revert\n        /* \"#utility.yul\":334:411   */\n    tag_92:\n        /* \"#utility.yul\":371:378   */\n      0x00\n        /* \"#utility.yul\":400:405   */\n      dup2\n        /* \"#utility.yul\":389:405   */\n      swap1\n      pop\n        /* \"#utility.yul\":334:411   */\n      swap2\n      swap1\n      pop\n      jump\t// out\n        /* \"#utility.yul\":417:539   */\n    tag_93:\n        /* \"#utility.yul\":490:514   */\n      tag_118\n        /* \"#utility.yul\":508:513   */\n      dup2\n        /* \"#utility.yul\":490:514   */\n      tag_92\n      jump\t// in\n    tag_118:\n        /* \"#utility.yul\":483:488   */\n      dup2\n        /* \"#utility.yul\":480:515   */\n      eq\n        /* \"#utility.yul\":470:533   */\n      tag_119\n      jumpi\n        /* \"#utility.yul\":529:530   */\n      0x00\n        /* \"#utility.yul\":526:527   */\n      dup1\n        /* \"#utility.yul\":519:531   */\n      revert\n        /* \"#utility.yul\":470:533   */\n    tag_119:\n        /* \"#utility.yul\":417:539   */\n      pop\n      jump\t// out\n        /* \"#utility.yul\":545:684   */\n    tag_94:\n        /* \"#utility.yul\":591:596   */\n      0x00\n        /* \"#utility.yul\":629:635   */\n      dup2\n        /* \"#utility.yul\":616:636   */\n      calldataload\n        /* \"#utility.yul\":607:636   */\n      swap1\n      pop\n        /* \"#utility.yul\":645:678   */\n      tag_121\n        /* \"#utility.yul\":672:677   */\n      dup2\n        /* \"#utility.yul\":645:678   */\n      tag_93\n      jump\t// in\n    tag_121:\n        /* \"#utility.yul\":545:684   */\n      swap3\n      swap2\n      pop\n      pop\n      jump\t// out\n        /* \"#utility.yul\":690:1019   */\n    tag_16:\n        /* \"#utility.yul\":749:755   */\n      0x00\n        /* \"#utility.yul\":798:800   */\n      0x20\n        /* \"#utility.yul\":786:795   */\n      dup3\n        /* \"#utility.yul\":777:784   */\n      dup5\n        /* \"#utility.yul\":773:796   */\n      sub\n        /* \"#utility.yul\":769:801   */\n      slt\n        /* \"#utility.yul\":766:885   */\n      iszero\n      tag_123\n      jumpi\n        /* \"#utility.yul\":804:883   */\n      tag_124\n      tag_90\n      jump\t// in\n    tag_124:\n        /* \"#utility.yul\":766:885   */\n    tag_123:\n        /* \"#utility.yul\":924:925   */\n      0x00\n        /* \"#utility.yul\":949:1002   */\n      tag_125\n        /* \"#utility.yul\":994:1001   */\n      dup5\n        /* \"#utility.yul\":985:991   */\n      dup3\n        /* \"#utility.yul\":974:983   */\n      dup6\n        /* \"#utility.yul\":970:992   */\n      add\n        /* \"#utility.yul\":949:1002   */\n      tag_94\n      jump\t// in\n    tag_125:\n        /* \"#utility.yul\":939:1002   */\n      swap2\n      pop\n        /* \"#utility.yul\":895:1012   */\n      pop\n        /* \"#utility.yul\":690:1019   */\n      swap3\n      swap2\n      pop\n      pop\n      jump\t// out\n        /* \"#utility.yul\":1025:1143   */\n    tag_95:\n        /* \"#utility.yul\":1112:1136   */\n      tag_127\n        /* \"#utility.yul\":1130:1135   */\n      dup2\n        /* \"#utility.yul\":1112:1136   */\n      tag_92\n      jump\t// in\n    tag_127:\n        /* \"#utility.yul\":1107:1110   */\n      dup3\n        /* \"#utility.yul\":1100:1137   */\n      mstore\n        /* \"#utility.yul\":1025:1143   */\n      pop\n      pop\n      jump\t// out\n        /* \"#utility.yul\":1149:1371   */\n    tag_25:\n        /* \"#utility.yul\":1242:1246   */\n      0x00\n        /* \"#utility.yul\":1280:1282   */\n      0x20\n        /* \"#utility.yul\":1269:1278   */\n      dup3\n        /* \"#utility.yul\":1265:1283   */\n      add\n        /* \"#utility.yul\":1257:1283   */\n      swap1\n      pop\n        /* \"#utility.yul\":1293:1364   */\n      tag_129\n        /* \"#utility.yul\":1361:1362   */\n      0x00\n        /* \"#utility.yul\":1350:1359   */\n      dup4\n        /* \"#utility.yul\":1346:1363   */\n      add\n        /* \"#utility.yul\":1337:1343   */\n      dup5\n        /* \"#utility.yul\":1293:1364   */\n      tag_95\n      jump\t// in\n    tag_129:\n        /* \"#utility.yul\":1149:1371   */\n      swap3\n      swap2\n      pop\n      pop\n      jump\t// out\n        /* \"#utility.yul\":1377:1503   */\n    tag_96:\n        /* \"#utility.yul\":1414:1421   */\n      0x00\n        /* \"#utility.yul\":1454:1496   */\n      0xffffffffffffffffffffffffffffffffffffffff\n        /* \"#utility.yul\":1447:1452   */\n      dup3\n        /* \"#utility.yul\":1443:1497   */\n      and\n        /* \"#utility.yul\":1432:1497   */\n      swap1\n      pop\n        /* \"#utility.yul\":1377:1503   */\n      swap2\n      swap1\n      pop\n      jump\t// out\n        /* \"#utility.yul\":1509:1605   */\n    tag_97:\n        /* \"#utility.yul\":1546:1553   */\n      0x00\n        /* \"#utility.yul\":1575:1599   */\n      tag_132\n        /* \"#utility.yul\":1593:1598   */\n      dup3\n        /* \"#utility.yul\":1575:1599   */\n      tag_96\n      jump\t// in\n    tag_132:\n        /* \"#utility.yul\":1564:1599   */\n      swap1\n      pop\n        /* \"#utility.yul\":1509:1605   */\n      swap2\n      swap1\n      pop\n      jump\t// out\n        /* \"#utility.yul\":1611:1729   */\n    tag_98:\n        /* \"#utility.yul\":1698:1722   */\n      tag_134\n        /* \"#utility.yul\":1716:1721   */\n      dup2\n        /* \"#utility.yul\":1698:1722   */\n      tag_97\n      jump\t// in\n    tag_134:\n        /* \"#utility.yul\":1693:1696   */\n      dup3\n        /* \"#utility.yul\":1686:1723   */\n      mstore\n        /* \"#utility.yul\":1611:1729   */\n      pop\n      pop\n      jump\t// out\n        /* \"#utility.yul\":1735:1957   */\n    tag_30:\n        /* \"#utility.yul\":1828:1832   */\n      0x00\n        /* \"#utility.yul\":1866:1868   */\n      0x20\n        /* \"#utility.yul\":1855:1864   */\n      dup3\n        /* \"#utility.yul\":1851:1869   */\n      add\n        /* \"#utility.yul\":1843:1869   */\n      swap1\n      pop\n        /* \"#utility.yul\":1879:1950   */\n      tag_136\n        /* \"#utility.yul\":1947:1948   */\n      0x00\n        /* \"#utility.yul\":1936:1945   */\n      dup4\n        /* \"#utility.yul\":1932:1949   */\n      add\n        /* \"#utility.yul\":1923:1929   */\n      dup5\n        /* \"#utility.yul\":1879:1950   */\n      tag_98\n      jump\t// in\n    tag_136:\n        /* \"#utility.yul\":1735:1957   */\n      swap3\n      swap2\n      pop\n      pop\n      jump\t// out\n        /* \"#utility.yul\":1963:2085   */\n    tag_99:\n        /* \"#utility.yul\":2036:2060   */\n      tag_138\n        /* \"#utility.yul\":2054:2059   */\n      dup2\n        /* \"#utility.yul\":2036:2060   */\n      tag_97\n      jump\t// in\n    tag_138:\n        /* \"#utility.yul\":2029:2034   */\n      dup2\n        /* \"#utility.yul\":2026:2061   */\n      eq\n        /* \"#utility.yul\":2016:2079   */\n      tag_139\n      jumpi\n        /* \"#utility.yul\":2075:2076   */\n      0x00\n        /* \"#utility.yul\":2072:2073   */\n      dup1\n        /* \"#utility.yul\":2065:2077   */\n      revert\n        /* \"#utility.yul\":2016:2079   */\n    tag_139:\n        /* \"#utility.yul\":1963:2085   */\n      pop\n      jump\t// out\n        /* \"#utility.yul\":2091:2230   */\n    tag_100:\n        /* \"#utility.yul\":2137:2142   */\n      0x00\n        /* \"#utility.yul\":2175:2181   */\n      dup2\n        /* \"#utility.yul\":2162:2182   */\n      calldataload\n        /* \"#utility.yul\":2153:2182   */\n      swap1\n      pop\n        /* \"#utility.yul\":2191:2224   */\n      tag_141\n        /* \"#utility.yul\":2218:2223   */\n      dup2\n        /* \"#utility.yul\":2191:2224   */\n      tag_99\n      jump\t// in\n    tag_141:\n        /* \"#utility.yul\":2091:2230   */\n      swap3\n      swap2\n      pop\n      pop\n      jump\t// out\n        /* \"#utility.yul\":2236:2710   */\n    tag_34:\n        /* \"#utility.yul\":2304:2310   */\n      0x00\n        /* \"#utility.yul\":2312:2318   */\n      dup1\n        /* \"#utility.yul\":2361:2363   */\n      0x40\n        /* \"#utility.yul\":2349:2358   */\n      dup4\n        /* \"#utility.yul\":2340:2347   */\n      dup6\n        /* \"#utility.yul\":2336:2359   */\n      sub\n        /* \"#utility.yul\":2332:2364   */\n      slt\n        /* \"#utility.yul\":2329:2448   */\n      iszero\n      tag_143\n      jumpi\n        /* \"#utility.yul\":2367:2446   */\n      tag_144\n      tag_90\n      jump\t// in\n    tag_144:\n        /* \"#utility.yul\":2329:2448   */\n    tag_143:\n        /* \"#utility.yul\":2487:2488   */\n      0x00\n        /* \"#utility.yul\":2512:2565   */\n      tag_145\n        /* \"#utility.yul\":2557:2564   */\n      dup6\n        /* \"#utility.yul\":2548:2554   */\n      dup3\n        /* \"#utility.yul\":2537:2546   */\n      dup7\n        /* \"#utility.yul\":2533:2555   */\n      add\n        /* \"#utility.yul\":2512:2565   */\n      tag_100\n      jump\t// in\n    tag_145:\n        /* \"#utility.yul\":2502:2565   */\n      swap3\n      pop\n        /* \"#utility.yul\":2458:2575   */\n      pop\n        /* \"#utility.yul\":2614:2616   */\n      0x20\n        /* \"#utility.yul\":2640:2693   */\n      tag_146\n        /* \"#utility.yul\":2685:2692   */\n      dup6\n        /* \"#utility.yul\":2676:2682   */\n      dup3\n        /* \"#utility.yul\":2665:2674   */\n      dup7\n        /* \"#utility.yul\":2661:2683   */\n      add\n        /* \"#utility.yul\":2640:2693   */\n      tag_94\n      jump\t// in\n    tag_146:\n        /* \"#utility.yul\":2630:2693   */\n      swap2\n      pop\n        /* \"#utility.yul\":2585:2703   */\n      pop\n        /* \"#utility.yul\":2236:2710   */\n      swap3\n      pop\n      swap3\n      swap1\n      pop\n      jump\t// out\n        /* \"#utility.yul\":2716:3045   */\n    tag_44:\n        /* \"#utility.yul\":2775:2781   */\n      0x00\n        /* \"#utility.yul\":2824:2826   */\n      0x20\n        /* \"#utility.yul\":2812:2821   */\n      dup3\n        /* \"#utility.yul\":2803:2810   */\n      dup5\n        /* \"#utility.yul\":2799:2822   */\n      sub\n        /* \"#utility.yul\":2795:2827   */\n      slt\n        /* \"#utility.yul\":2792:2911   */\n      iszero\n      tag_148\n      jumpi\n        /* \"#utility.yul\":2830:2909   */\n      tag_149\n      tag_90\n      jump\t// in\n    tag_149:\n        /* \"#utility.yul\":2792:2911   */\n    tag_148:\n        /* \"#utility.yul\":2950:2951   */\n      0x00\n        /* \"#utility.yul\":2975:3028   */\n      tag_150\n        /* \"#utility.yul\":3020:3027   */\n      dup5\n        /* \"#utility.yul\":3011:3017   */\n      dup3\n        /* \"#utility.yul\":3000:3009   */\n      dup6\n        /* \"#utility.yul\":2996:3018   */\n      add\n        /* \"#utility.yul\":2975:3028   */\n      tag_100\n      jump\t// in\n    tag_150:\n        /* \"#utility.yul\":2965:3028   */\n      swap2\n      pop\n        /* \"#utility.yul\":2921:3038   */\n      pop\n        /* \"#utility.yul\":2716:3045   */\n      swap3\n      swap2\n      pop\n      pop\n      jump\t// out\n        /* \"#utility.yul\":3051:3220   */\n    tag_101:\n        /* \"#utility.yul\":3135:3146   */\n      0x00\n        /* \"#utility.yul\":3169:3175   */\n      dup3\n        /* \"#utility.yul\":3164:3167   */\n      dup3\n        /* \"#utility.yul\":3157:3176   */\n      mstore\n        /* \"#utility.yul\":3209:3213   */\n      0x20\n        /* \"#utility.yul\":3204:3207   */\n      dup3\n        /* \"#utility.yul\":3200:3214   */\n      add\n        /* \"#utility.yul\":3185:3214   */\n      swap1\n      pop\n        /* \"#utility.yul\":3051:3220   */\n      swap3\n      swap2\n      pop\n      pop\n      jump\t// out\n        /* \"#utility.yul\":3226:3447   */\n    tag_102:\n        /* \"#utility.yul\":3366:3400   */\n      0x4f6e6c79206f776e65722063616e2063616c6c20746869732066756e6374696f\n        /* \"#utility.yul\":3362:3363   */\n      0x00\n        /* \"#utility.yul\":3354:3360   */\n      dup3\n        /* \"#utility.yul\":3350:3364   */\n      add\n        /* \"#utility.yul\":3343:3401   */\n      mstore\n        /* \"#utility.yul\":3435:3439   */\n      0x6e2e000000000000000000000000000000000000000000000000000000000000\n        /* \"#utility.yul\":3430:3432   */\n      0x20\n        /* \"#utility.yul\":3422:3428   */\n      dup3\n        /* \"#utility.yul\":3418:3433   */\n      add\n        /* \"#utility.yul\":3411:3440   */\n      mstore\n        /* \"#utility.yul\":3226:3447   */\n      pop\n      jump\t// out\n        /* \"#utility.yul\":3453:3819   */\n    tag_103:\n        /* \"#utility.yul\":3595:3598   */\n      0x00\n        /* \"#utility.yul\":3616:3683   */\n      tag_154\n        /* \"#utility.yul\":3680:3682   */\n      0x22\n        /* \"#utility.yul\":3675:3678   */\n      dup4\n        /* \"#utility.yul\":3616:3683   */\n      tag_101\n      jump\t// in\n    tag_154:\n        /* \"#utility.yul\":3609:3683   */\n      swap2\n      pop\n        /* \"#utility.yul\":3692:3785   */\n      tag_155\n        /* \"#utility.yul\":3781:3784   */\n      dup3\n        /* \"#utility.yul\":3692:3785   */\n      tag_102\n      jump\t// in\n    tag_155:\n        /* \"#utility.yul\":3810:3812   */\n      0x40\n        /* \"#utility.yul\":3805:3808   */\n      dup3\n        /* \"#utility.yul\":3801:3813   */\n      add\n        /* \"#utility.yul\":3794:3813   */\n      swap1\n      pop\n        /* \"#utility.yul\":3453:3819   */\n      swap2\n      swap1\n      pop\n      jump\t// out\n        /* \"#utility.yul\":3825:4244   */\n    tag_50:\n        /* \"#utility.yul\":3991:3995   */\n      0x00\n        /* \"#utility.yul\":4029:4031   */\n      0x20\n        /* \"#utility.yul\":4018:4027   */\n      dup3\n        /* \"#utility.yul\":4014:4032   */\n      add\n        /* \"#utility.yul\":4006:4032   */\n      swap1\n      pop\n        /* \"#utility.yul\":4078:4087   */\n      dup2\n        /* \"#utility.yul\":4072:4076   */\n      dup2\n        /* \"#utility.yul\":4068:4088   */\n      sub\n        /* \"#utility.yul\":4064:4065   */\n      0x00\n        /* \"#utility.yul\":4053:4062   */\n      dup4\n        /* \"#utility.yul\":4049:4066   */\n      add\n        /* \"#utility.yul\":4042:4089   */\n      mstore\n        /* \"#utility.yul\":4106:4237   */\n      tag_157\n        /* \"#utility.yul\":4232:4236   */\n      dup2\n        /* \"#utility.yul\":4106:4237   */\n      tag_103\n      jump\t// in\n    tag_157:\n        /* \"#utility.yul\":4098:4237   */\n      swap1\n      pop\n        /* \"#utility.yul\":3825:4244   */\n      swap2\n      swap1\n      pop\n      jump\t// out\n        /* \"#utility.yul\":4250:4430   */\n    tag_104:\n        /* \"#utility.yul\":4390:4422   */\n      0x546f74616c20696e6865726974616e6365206d757374206265207365742e0000\n        /* \"#utility.yul\":4386:4387   */\n      0x00\n        /* \"#utility.yul\":4378:4384   */\n      dup3\n        /* \"#utility.yul\":4374:4388   */\n      add\n        /* \"#utility.yul\":4367:4423   */\n      mstore\n        /* \"#utility.yul\":4250:4430   */\n      pop\n      jump\t// out\n        /* \"#utility.yul\":4436:4802   */\n    tag_105:\n        /* \"#utility.yul\":4578:4581   */\n      0x00\n        /* \"#utility.yul\":4599:4666   */\n      tag_160\n        /* \"#utility.yul\":4663:4665   */\n      0x1e\n        /* \"#utility.yul\":4658:4661   */\n      dup4\n        /* \"#utility.yul\":4599:4666   */\n      tag_101\n      jump\t// in\n    tag_160:\n        /* \"#utility.yul\":4592:4666   */\n      swap2\n      pop\n        /* \"#utility.yul\":4675:4768   */\n      tag_161\n        /* \"#utility.yul\":4764:4767   */\n      dup3\n        /* \"#utility.yul\":4675:4768   */\n      tag_104\n      jump\t// in\n    tag_161:\n        /* \"#utility.yul\":4793:4795   */\n      0x20\n        /* \"#utility.yul\":4788:4791   */\n      dup3\n        /* \"#utility.yul\":4784:4796   */\n      add\n        /* \"#utility.yul\":4777:4796   */\n      swap1\n      pop\n        /* \"#utility.yul\":4436:4802   */\n      swap2\n      swap1\n      pop\n      jump\t// out\n        /* \"#utility.yul\":4808:5227   */\n    tag_59:\n        /* \"#utility.yul\":4974:4978   */\n      0x00\n        /* \"#utility.yul\":5012:5014   */\n      0x20\n        /* \"#utility.yul\":5001:5010   */\n      dup3\n        /* \"#utility.yul\":4997:5015   */\n      add\n        /* \"#utility.yul\":4989:5015   */\n      swap1\n      pop\n        /* \"#utility.yul\":5061:5070   */\n      dup2\n        /* \"#utility.yul\":5055:5059   */\n      dup2\n        /* \"#utility.yul\":5051:5071   */\n      sub\n        /* \"#utility.yul\":5047:5048   */\n      0x00\n        /* \"#utility.yul\":5036:5045   */\n      dup4\n        /* \"#utility.yul\":5032:5049   */\n      add\n        /* \"#utility.yul\":5025:5072   */\n      mstore\n        /* \"#utility.yul\":5089:5220   */\n      tag_163\n        /* \"#utility.yul\":5215:5219   */\n      dup2\n        /* \"#utility.yul\":5089:5220   */\n      tag_105\n      jump\t// in\n    tag_163:\n        /* \"#utility.yul\":5081:5220   */\n      swap1\n      pop\n        /* \"#utility.yul\":4808:5227   */\n      swap2\n      swap1\n      pop\n      jump\t// out\n        /* \"#utility.yul\":5233:5413   */\n    tag_65:\n        /* \"#utility.yul\":5281:5358   */\n      0x4e487b7100000000000000000000000000000000000000000000000000000000\n        /* \"#utility.yul\":5278:5279   */\n      0x00\n        /* \"#utility.yul\":5271:5359   */\n      mstore\n        /* \"#utility.yul\":5378:5382   */\n      0x32\n        /* \"#utility.yul\":5375:5376   */\n      0x04\n        /* \"#utility.yul\":5368:5383   */\n      mstore\n        /* \"#utility.yul\":5402:5406   */\n      0x24\n        /* \"#utility.yul\":5399:5400   */\n      0x00\n        /* \"#utility.yul\":5392:5407   */\n      revert\n        /* \"#utility.yul\":5419:5599   */\n    tag_106:\n        /* \"#utility.yul\":5467:5544   */\n      0x4e487b7100000000000000000000000000000000000000000000000000000000\n        /* \"#utility.yul\":5464:5465   */\n      0x00\n        /* \"#utility.yul\":5457:5545   */\n      mstore\n        /* \"#utility.yul\":5564:5568   */\n      0x11\n        /* \"#utility.yul\":5561:5562   */\n      0x04\n        /* \"#utility.yul\":5554:5569   */\n      mstore\n        /* \"#utility.yul\":5588:5592   */\n      0x24\n        /* \"#utility.yul\":5585:5586   */\n      0x00\n        /* \"#utility.yul\":5578:5593   */\n      revert\n        /* \"#utility.yul\":5605:6015   */\n    tag_69:\n        /* \"#utility.yul\":5645:5652   */\n      0x00\n        /* \"#utility.yul\":5668:5688   */\n      tag_167\n        /* \"#utility.yul\":5686:5687   */\n      dup3\n        /* \"#utility.yul\":5668:5688   */\n      tag_92\n      jump\t// in\n    tag_167:\n        /* \"#utility.yul\":5663:5688   */\n      swap2\n      pop\n        /* \"#utility.yul\":5702:5722   */\n      tag_168\n        /* \"#utility.yul\":5720:5721   */\n      dup4\n        /* \"#utility.yul\":5702:5722   */\n      tag_92\n      jump\t// in\n    tag_168:\n        /* \"#utility.yul\":5697:5722   */\n      swap3\n      pop\n        /* \"#utility.yul\":5757:5758   */\n      dup3\n        /* \"#utility.yul\":5754:5755   */\n      dup3\n        /* \"#utility.yul\":5750:5759   */\n      mul\n        /* \"#utility.yul\":5779:5809   */\n      tag_169\n        /* \"#utility.yul\":5797:5808   */\n      dup2\n        /* \"#utility.yul\":5779:5809   */\n      tag_92\n      jump\t// in\n    tag_169:\n        /* \"#utility.yul\":5768:5809   */\n      swap2\n      pop\n        /* \"#utility.yul\":5958:5959   */\n      dup3\n        /* \"#utility.yul\":5949:5956   */\n      dup3\n        /* \"#utility.yul\":5945:5960   */\n      div\n        /* \"#utility.yul\":5942:5943   */\n      dup5\n        /* \"#utility.yul\":5939:5961   */\n      eq\n        /* \"#utility.yul\":5919:5920   */\n      dup4\n        /* \"#utility.yul\":5912:5921   */\n      iszero\n        /* \"#utility.yul\":5892:5975   */\n      or\n        /* \"#utility.yul\":5869:6008   */\n      tag_170\n      jumpi\n        /* \"#utility.yul\":5988:6006   */\n      tag_171\n      tag_106\n      jump\t// in\n    tag_171:\n        /* \"#utility.yul\":5869:6008   */\n    tag_170:\n        /* \"#utility.yul\":5653:6015   */\n      pop\n        /* \"#utility.yul\":5605:6015   */\n      swap3\n      swap2\n      pop\n      pop\n      jump\t// out\n        /* \"#utility.yul\":6021:6201   */\n    tag_107:\n        /* \"#utility.yul\":6069:6146   */\n      0x4e487b7100000000000000000000000000000000000000000000000000000000\n        /* \"#utility.yul\":6066:6067   */\n      0x00\n        /* \"#utility.yul\":6059:6147   */\n      mstore\n        /* \"#utility.yul\":6166:6170   */\n      0x12\n        /* \"#utility.yul\":6163:6164   */\n      0x04\n        /* \"#utility.yul\":6156:6171   */\n      mstore\n        /* \"#utility.yul\":6190:6194   */\n      0x24\n        /* \"#utility.yul\":6187:6188   */\n      0x00\n        /* \"#utility.yul\":6180:6195   */\n      revert\n        /* \"#utility.yul\":6207:6392   */\n    tag_71:\n        /* \"#utility.yul\":6247:6248   */\n      0x00\n        /* \"#utility.yul\":6264:6284   */\n      tag_174\n        /* \"#utility.yul\":6282:6283   */\n      dup3\n        /* \"#utility.yul\":6264:6284   */\n      tag_92\n      jump\t// in\n    tag_174:\n        /* \"#utility.yul\":6259:6284   */\n      swap2\n      pop\n        /* \"#utility.yul\":6298:6318   */\n      tag_175\n        /* \"#utility.yul\":6316:6317   */\n      dup4\n        /* \"#utility.yul\":6298:6318   */\n      tag_92\n      jump\t// in\n    tag_175:\n        /* \"#utility.yul\":6293:6318   */\n      swap3\n      pop\n        /* \"#utility.yul\":6337:6338   */\n      dup3\n        /* \"#utility.yul\":6327:6362   */\n      tag_176\n      jumpi\n        /* \"#utility.yul\":6342:6360   */\n      tag_177\n      tag_107\n      jump\t// in\n    tag_177:\n        /* \"#utility.yul\":6327:6362   */\n    tag_176:\n        /* \"#utility.yul\":6384:6385   */\n      dup3\n        /* \"#utility.yul\":6381:6382   */\n      dup3\n        /* \"#utility.yul\":6377:6386   */\n      div\n        /* \"#utility.yul\":6372:6386   */\n      swap1\n      pop\n        /* \"#utility.yul\":6207:6392   */\n      swap3\n      swap2\n      pop\n      pop\n      jump\t// out\n        /* \"#utility.yul\":6398:6580   */\n    tag_108:\n        /* \"#utility.yul\":6538:6572   */\n      0x5368617265206d7573742062652067726561746572207468616e207a65726f2e\n        /* \"#utility.yul\":6534:6535   */\n      0x00\n        /* \"#utility.yul\":6526:6532   */\n      dup3\n        /* \"#utility.yul\":6522:6536   */\n      add\n        /* \"#utility.yul\":6515:6573   */\n      mstore\n        /* \"#utility.yul\":6398:6580   */\n      pop\n      jump\t// out\n        /* \"#utility.yul\":6586:6952   */\n    tag_109:\n        /* \"#utility.yul\":6728:6731   */\n      0x00\n        /* \"#utility.yul\":6749:6816   */\n      tag_180\n        /* \"#utility.yul\":6813:6815   */\n      0x20\n        /* \"#utility.yul\":6808:6811   */\n      dup4\n        /* \"#utility.yul\":6749:6816   */\n      tag_101\n      jump\t// in\n    tag_180:\n        /* \"#utility.yul\":6742:6816   */\n      swap2\n      pop\n        /* \"#utility.yul\":6825:6918   */\n      tag_181\n        /* \"#utility.yul\":6914:6917   */\n      dup3\n        /* \"#utility.yul\":6825:6918   */\n      tag_108\n      jump\t// in\n    tag_181:\n        /* \"#utility.yul\":6943:6945   */\n      0x20\n        /* \"#utility.yul\":6938:6941   */\n      dup3\n        /* \"#utility.yul\":6934:6946   */\n      add\n        /* \"#utility.yul\":6927:6946   */\n      swap1\n      pop\n        /* \"#utility.yul\":6586:6952   */\n      swap2\n      swap1\n      pop\n      jump\t// out\n        /* \"#utility.yul\":6958:7377   */\n    tag_80:\n        /* \"#utility.yul\":7124:7128   */\n      0x00\n        /* \"#utility.yul\":7162:7164   */\n      0x20\n        /* \"#utility.yul\":7151:7160   */\n      dup3\n        /* \"#utility.yul\":7147:7165   */\n      add\n        /* \"#utility.yul\":7139:7165   */\n      swap1\n      pop\n        /* \"#utility.yul\":7211:7220   */\n      dup2\n        /* \"#utility.yul\":7205:7209   */\n      dup2\n        /* \"#utility.yul\":7201:7221   */\n      sub\n        /* \"#utility.yul\":7197:7198   */\n      0x00\n        /* \"#utility.yul\":7186:7195   */\n      dup4\n        /* \"#utility.yul\":7182:7199   */\n      add\n        /* \"#utility.yul\":7175:7222   */\n      mstore\n        /* \"#utility.yul\":7239:7370   */\n      tag_183\n        /* \"#utility.yul\":7365:7369   */\n      dup2\n        /* \"#utility.yul\":7239:7370   */\n      tag_109\n      jump\t// in\n    tag_183:\n        /* \"#utility.yul\":7231:7370   */\n      swap1\n      pop\n        /* \"#utility.yul\":6958:7377   */\n      swap2\n      swap1\n      pop\n      jump\t// out\n        /* \"#utility.yul\":7383:7552   */\n    tag_110:\n        /* \"#utility.yul\":7523:7544   */\n      0x4865697220616c72656164792061646465642e00000000000000000000000000\n        /* \"#utility.yul\":7519:7520   */\n      0x00\n        /* \"#utility.yul\":7511:7517   */\n      dup3\n        /* \"#utility.yul\":7507:7521   */\n      add\n        /* \"#utility.yul\":7500:7545   */\n      mstore\n        /* \"#utility.yul\":7383:7552   */\n      pop\n      jump\t// out\n        /* \"#utility.yul\":7558:7924   */\n    tag_111:\n        /* \"#utility.yul\":7700:7703   */\n      0x00\n        /* \"#utility.yul\":7721:7788   */\n      tag_186\n        /* \"#utility.yul\":7785:7787   */\n      0x13\n        /* \"#utility.yul\":7780:7783   */\n      dup4\n        /* \"#utility.yul\":7721:7788   */\n      tag_101\n      jump\t// in\n    tag_186:\n        /* \"#utility.yul\":7714:7788   */\n      swap2\n      pop\n        /* \"#utility.yul\":7797:7890   */\n      tag_187\n        /* \"#utility.yul\":7886:7889   */\n      dup3\n        /* \"#utility.yul\":7797:7890   */\n      tag_110\n      jump\t// in\n    tag_187:\n        /* \"#utility.yul\":7915:7917   */\n      0x20\n        /* \"#utility.yul\":7910:7913   */\n      dup3\n        /* \"#utility.yul\":7906:7918   */\n      add\n        /* \"#utility.yul\":7899:7918   */\n      swap1\n      pop\n        /* \"#utility.yul\":7558:7924   */\n      swap2\n      swap1\n      pop\n      jump\t// out\n        /* \"#utility.yul\":7930:8349   */\n    tag_83:\n        /* \"#utility.yul\":8096:8100   */\n      0x00\n        /* \"#utility.yul\":8134:8136   */\n      0x20\n        /* \"#utility.yul\":8123:8132   */\n      dup3\n        /* \"#utility.yul\":8119:8137   */\n      add\n        /* \"#utility.yul\":8111:8137   */\n      swap1\n      pop\n        /* \"#utility.yul\":8183:8192   */\n      dup2\n        /* \"#utility.yul\":8177:8181   */\n      dup2\n        /* \"#utility.yul\":8173:8193   */\n      sub\n        /* \"#utility.yul\":8169:8170   */\n      0x00\n        /* \"#utility.yul\":8158:8167   */\n      dup4\n        /* \"#utility.yul\":8154:8171   */\n      add\n        /* \"#utility.yul\":8147:8194   */\n      mstore\n        /* \"#utility.yul\":8211:8342   */\n      tag_189\n        /* \"#utility.yul\":8337:8341   */\n      dup2\n        /* \"#utility.yul\":8211:8342   */\n      tag_111\n      jump\t// in\n    tag_189:\n        /* \"#utility.yul\":8203:8342   */\n      swap1\n      pop\n        /* \"#utility.yul\":7930:8349   */\n      swap2\n      swap1\n      pop\n      jump\t// out\n        /* \"#utility.yul\":8355:8687   */\n    tag_86:\n        /* \"#utility.yul\":8476:8480   */\n      0x00\n        /* \"#utility.yul\":8514:8516   */\n      0x40\n        /* \"#utility.yul\":8503:8512   */\n      dup3\n        /* \"#utility.yul\":8499:8517   */\n      add\n        /* \"#utility.yul\":8491:8517   */\n      swap1\n      pop\n        /* \"#utility.yul\":8527:8598   */\n      tag_191\n        /* \"#utility.yul\":8595:8596   */\n      0x00\n        /* \"#utility.yul\":8584:8593   */\n      dup4\n        /* \"#utility.yul\":8580:8597   */\n      add\n        /* \"#utility.yul\":8571:8577   */\n      dup6\n        /* \"#utility.yul\":8527:8598   */\n      tag_98\n      jump\t// in\n    tag_191:\n        /* \"#utility.yul\":8608:8680   */\n      tag_192\n        /* \"#utility.yul\":8676:8678   */\n      0x20\n        /* \"#utility.yul\":8665:8674   */\n      dup4\n        /* \"#utility.yul\":8661:8679   */\n      add\n        /* \"#utility.yul\":8652:8658   */\n      dup5\n        /* \"#utility.yul\":8608:8680   */\n      tag_95\n      jump\t// in\n    tag_192:\n        /* \"#utility.yul\":8355:8687   */\n      swap4\n      swap3\n      pop\n      pop\n      pop\n      jump\t// out\n\n    auxdata: 0xa26469706673582212204c088ff2f1f992e548b957e4b516c73a6aa7e3b25b8664770b0918a573c1594d64736f6c634300081a0033\n}\n",
				"bytecode": {
					"linkReferences": {},
					"object": "6080604052348015600e575f80fd5b50335f806101000a81548173ffffffffffffffffffffffffffffffffffffffff021916908373ffffffffffffffffffffffffffffffffffffffff160217905550610bd48061005b5f395ff3fe608060405260043610610073575f3560e01c80638da5cb5b1161004d5780638da5cb5b146100e65780639cdd47f214610110578063aefad0b214610138578063f45b587c146101745761007a565b806314c7f2e91461007e57806353a41b50146100a657806380369a9b146100bc5761007a565b3661007a57005b5f80fd5b348015610089575f80fd5b506100a4600480360381019061009f919061076b565b6101b0565b005b3480156100b1575f80fd5b506100ba61027e565b005b3480156100c7575f80fd5b506100d061048e565b6040516100dd91906107a5565b60405180910390f35b3480156100f1575f80fd5b506100fa610494565b60405161010791906107fd565b60405180910390f35b34801561011b575f80fd5b5061013660048036038101906101319190610840565b6104b7565b005b348015610143575f80fd5b5061015e6004803603810190610159919061076b565b6106e4565b60405161016b91906107fd565b60405180910390f35b34801561017f575f80fd5b5061019a6004803603810190610195919061087e565b61071f565b6040516101a791906107a5565b60405180910390f35b5f8054906101000a900473ffffffffffffffffffffffffffffffffffffffff1673ffffffffffffffffffffffffffffffffffffffff163373ffffffffffffffffffffffffffffffffffffffff161461023d576040517f08c379a000000000000000000000000000000000000000000000000000000000815260040161023490610929565b60405180910390fd5b806001819055507f56a75606e7d8b5c7b0884e9333a0d7cf41e8674a0870ff1174fe06019a8ecdcf8160405161027391906107a5565b60405180910390a150565b5f8054906101000a900473ffffffffffffffffffffffffffffffffffffffff1673ffffffffffffffffffffffffffffffffffffffff163373ffffffffffffffffffffffffffffffffffffffff161461030b576040517f08c379a000000000000000000000000000000000000000000000000000000000815260040161030290610929565b60405180910390fd5b5f6001541161034f576040517f08c379a000000000000000000000000000000000000000000000000000000000815260040161034690610991565b60405180910390fd5b5f5b600380549050811015610458575f60038281548110610373576103726109af565b5b905f5260205f20015f9054906101000a900473ffffffffffffffffffffffffffffffffffffffff1690505f60025f8373ffffffffffffffffffffffffffffffffffffffff1673ffffffffffffffffffffffffffffffffffffffff1681526020019081526020015f205490505f811115610449575f6064826001546103f79190610a09565b6104019190610a77565b90508273ffffffffffffffffffffffffffffffffffffffff166108fc8290811502906040515f60405180830381858888f19350505050158015610446573d5f803e3d5ffd5b50505b50508080600101915050610351565b507f7bfb78e8a6c87b77bc7ad47ee02092f528a4b0e762784170f0bc3ed1a4a4a08460405160405180910390a15f600181905550565b60015481565b5f8054906101000a900473ffffffffffffffffffffffffffffffffffffffff1681565b5f8054906101000a900473ffffffffffffffffffffffffffffffffffffffff1673ffffffffffffffffffffffffffffffffffffffff163373ffffffffffffffffffffffffffffffffffffffff1614610544576040517f08c379a000000000000000000000000000000000000000000000000000000000815260040161053b90610929565b60405180910390fd5b5f8111610586576040517f08c379a000000000000000000000000000000000000000000000000000000000815260040161057d90610af1565b60405180910390fd5b5f60025f8473ffffffffffffffffffffffffffffffffffffffff1673ffffffffffffffffffffffffffffffffffffffff1681526020019081526020015f205414610605576040517f08c379a00000000000000000000000000000000000000000000000000000000081526004016105fc90610b59565b60405180910390fd5b8060025f8473ffffffffffffffffffffffffffffffffffffffff1673ffffffffffffffffffffffffffffffffffffffff1681526020019081526020015f2081905550600382908060018154018082558091505060019003905f5260205f20015f9091909190916101000a81548173ffffffffffffffffffffffffffffffffffffffff021916908373ffffffffffffffffffffffffffffffffffffffff1602179055507f53ecd725315076d49de41e105a400b4659b4eb2060f6677e74e2a4cb645b478582826040516106d8929190610b77565b60405180910390a15050565b600381815481106106f3575f80fd5b905f5260205f20015f915054906101000a900473ffffffffffffffffffffffffffffffffffffffff1681565b6002602052805f5260405f205f915090505481565b5f80fd5b5f819050919050565b61074a81610738565b8114610754575f80fd5b50565b5f8135905061076581610741565b92915050565b5f602082840312156107805761077f610734565b5b5f61078d84828501610757565b91505092915050565b61079f81610738565b82525050565b5f6020820190506107b85f830184610796565b92915050565b5f73ffffffffffffffffffffffffffffffffffffffff82169050919050565b5f6107e7826107be565b9050919050565b6107f7816107dd565b82525050565b5f6020820190506108105f8301846107ee565b92915050565b61081f816107dd565b8114610829575f80fd5b50565b5f8135905061083a81610816565b92915050565b5f806040838503121561085657610855610734565b5b5f6108638582860161082c565b925050602061087485828601610757565b9150509250929050565b5f6020828403121561089357610892610734565b5b5f6108a08482850161082c565b91505092915050565b5f82825260208201905092915050565b7f4f6e6c79206f776e65722063616e2063616c6c20746869732066756e6374696f5f8201527f6e2e000000000000000000000000000000000000000000000000000000000000602082015250565b5f6109136022836108a9565b915061091e826108b9565b604082019050919050565b5f6020820190508181035f83015261094081610907565b9050919050565b7f546f74616c20696e6865726974616e6365206d757374206265207365742e00005f82015250565b5f61097b601e836108a9565b915061098682610947565b602082019050919050565b5f6020820190508181035f8301526109a88161096f565b9050919050565b7f4e487b71000000000000000000000000000000000000000000000000000000005f52603260045260245ffd5b7f4e487b71000000000000000000000000000000000000000000000000000000005f52601160045260245ffd5b5f610a1382610738565b9150610a1e83610738565b9250828202610a2c81610738565b91508282048414831517610a4357610a426109dc565b5b5092915050565b7f4e487b71000000000000000000000000000000000000000000000000000000005f52601260045260245ffd5b5f610a8182610738565b9150610a8c83610738565b925082610a9c57610a9b610a4a565b5b828204905092915050565b7f5368617265206d7573742062652067726561746572207468616e207a65726f2e5f82015250565b5f610adb6020836108a9565b9150610ae682610aa7565b602082019050919050565b5f6020820190508181035f830152610b0881610acf565b9050919050565b7f4865697220616c72656164792061646465642e000000000000000000000000005f82015250565b5f610b436013836108a9565b9150610b4e82610b0f565b602082019050919050565b5f6020820190508181035f830152610b7081610b37565b9050919050565b5f604082019050610b8a5f8301856107ee565b610b976020830184610796565b939250505056fea26469706673582212204c088ff2f1f992e548b957e4b516c73a6aa7e3b25b8664770b0918a573c1594d64736f6c634300081a0033",
					"opcodes": "PUSH1 0x80 PUSH1 0x40 MSTORE CALLVALUE DUP1 ISZERO PUSH1 0xE JUMPI PUSH0 DUP1 REVERT JUMPDEST POP CALLER PUSH0 DUP1 PUSH2 0x100 EXP DUP2 SLOAD DUP2 PUSH20 0xFFFFFFFFFFFFFFFFFFFFFFFFFFFFFFFFFFFFFFFF MUL NOT AND SWAP1 DUP4 PUSH20 0xFFFFFFFFFFFFFFFFFFFFFFFFFFFFFFFFFFFFFFFF AND MUL OR SWAP1 SSTORE POP PUSH2 0xBD4 DUP1 PUSH2 0x5B PUSH0 CODECOPY PUSH0 RETURN INVALID PUSH1 0x80 PUSH1 0x40 MSTORE PUSH1 0x4 CALLDATASIZE LT PUSH2 0x73 JUMPI PUSH0 CALLDATALOAD PUSH1 0xE0 SHR DUP1 PUSH4 0x8DA5CB5B GT PUSH2 0x4D JUMPI DUP1 PUSH4 0x8DA5CB5B EQ PUSH2 0xE6 JUMPI DUP1 PUSH4 0x9CDD47F2 EQ PUSH2 0x110 JUMPI DUP1 PUSH4 0xAEFAD0B2 EQ PUSH2 0x138 JUMPI DUP1 PUSH4 0xF45B587C EQ PUSH2 0x174 JUMPI PUSH2 0x7A JUMP JUMPDEST DUP1 PUSH4 0x14C7F2E9 EQ PUSH2 0x7E JUMPI DUP1 PUSH4 0x53A41B50 EQ PUSH2 0xA6 JUMPI DUP1 PUSH4 0x80369A9B EQ PUSH2 0xBC JUMPI PUSH2 0x7A JUMP JUMPDEST CALLDATASIZE PUSH2 0x7A JUMPI STOP JUMPDEST PUSH0 DUP1 REVERT JUMPDEST CALLVALUE DUP1 ISZERO PUSH2 0x89 JUMPI PUSH0 DUP1 REVERT JUMPDEST POP PUSH2 0xA4 PUSH1 0x4 DUP1 CALLDATASIZE SUB DUP2 ADD SWAP1 PUSH2 0x9F SWAP2 SWAP1 PUSH2 0x76B JUMP JUMPDEST PUSH2 0x1B0 JUMP JUMPDEST STOP JUMPDEST CALLVALUE DUP1 ISZERO PUSH2 0xB1 JUMPI PUSH0 DUP1 REVERT JUMPDEST POP PUSH2 0xBA PUSH2 0x27E JUMP JUMPDEST STOP JUMPDEST CALLVALUE DUP1 ISZERO PUSH2 0xC7 JUMPI PUSH0 DUP1 REVERT JUMPDEST POP PUSH2 0xD0 PUSH2 0x48E JUMP JUMPDEST PUSH1 0x40 MLOAD PUSH2 0xDD SWAP2 SWAP1 PUSH2 0x7A5 JUMP JUMPDEST PUSH1 0x40 MLOAD DUP1 SWAP2 SUB SWAP1 RETURN JUMPDEST CALLVALUE DUP1 ISZERO PUSH2 0xF1 JUMPI PUSH0 DUP1 REVERT JUMPDEST POP PUSH2 0xFA PUSH2 0x494 JUMP JUMPDEST PUSH1 0x40 MLOAD PUSH2 0x107 SWAP2 SWAP1 PUSH2 0x7FD JUMP JUMPDEST PUSH1 0x40 MLOAD DUP1 SWAP2 SUB SWAP1 RETURN JUMPDEST CALLVALUE DUP1 ISZERO PUSH2 0x11B JUMPI PUSH0 DUP1 REVERT JUMPDEST POP PUSH2 0x136 PUSH1 0x4 DUP1 CALLDATASIZE SUB DUP2 ADD SWAP1 PUSH2 0x131 SWAP2 SWAP1 PUSH2 0x840 JUMP JUMPDEST PUSH2 0x4B7 JUMP JUMPDEST STOP JUMPDEST CALLVALUE DUP1 ISZERO PUSH2 0x143 JUMPI PUSH0 DUP1 REVERT JUMPDEST POP PUSH2 0x15E PUSH1 0x4 DUP1 CALLDATASIZE SUB DUP2 ADD SWAP1 PUSH2 0x159 SWAP2 SWAP1 PUSH2 0x76B JUMP JUMPDEST PUSH2 0x6E4 JUMP JUMPDEST PUSH1 0x40 MLOAD PUSH2 0x16B SWAP2 SWAP1 PUSH2 0x7FD JUMP JUMPDEST PUSH1 0x40 MLOAD DUP1 SWAP2 SUB SWAP1 RETURN JUMPDEST CALLVALUE DUP1 ISZERO PUSH2 0x17F JUMPI PUSH0 DUP1 REVERT JUMPDEST POP PUSH2 0x19A PUSH1 0x4 DUP1 CALLDATASIZE SUB DUP2 ADD SWAP1 PUSH2 0x195 SWAP2 SWAP1 PUSH2 0x87E JUMP JUMPDEST PUSH2 0x71F JUMP JUMPDEST PUSH1 0x40 MLOAD PUSH2 0x1A7 SWAP2 SWAP1 PUSH2 0x7A5 JUMP JUMPDEST PUSH1 0x40 MLOAD DUP1 SWAP2 SUB SWAP1 RETURN JUMPDEST PUSH0 DUP1 SLOAD SWAP1 PUSH2 0x100 EXP SWAP1 DIV PUSH20 0xFFFFFFFFFFFFFFFFFFFFFFFFFFFFFFFFFFFFFFFF AND PUSH20 0xFFFFFFFFFFFFFFFFFFFFFFFFFFFFFFFFFFFFFFFF AND CALLER PUSH20 0xFFFFFFFFFFFFFFFFFFFFFFFFFFFFFFFFFFFFFFFF AND EQ PUSH2 0x23D JUMPI PUSH1 0x40 MLOAD PUSH32 0x8C379A000000000000000000000000000000000000000000000000000000000 DUP2 MSTORE PUSH1 0x4 ADD PUSH2 0x234 SWAP1 PUSH2 0x929 JUMP JUMPDEST PUSH1 0x40 MLOAD DUP1 SWAP2 SUB SWAP1 REVERT JUMPDEST DUP1 PUSH1 0x1 DUP2 SWAP1 SSTORE POP PUSH32 0x56A75606E7D8B5C7B0884E9333A0D7CF41E8674A0870FF1174FE06019A8ECDCF DUP2 PUSH1 0x40 MLOAD PUSH2 0x273 SWAP2 SWAP1 PUSH2 0x7A5 JUMP JUMPDEST PUSH1 0x40 MLOAD DUP1 SWAP2 SUB SWAP1 LOG1 POP JUMP JUMPDEST PUSH0 DUP1 SLOAD SWAP1 PUSH2 0x100 EXP SWAP1 DIV PUSH20 0xFFFFFFFFFFFFFFFFFFFFFFFFFFFFFFFFFFFFFFFF AND PUSH20 0xFFFFFFFFFFFFFFFFFFFFFFFFFFFFFFFFFFFFFFFF AND CALLER PUSH20 0xFFFFFFFFFFFFFFFFFFFFFFFFFFFFFFFFFFFFFFFF AND EQ PUSH2 0x30B JUMPI PUSH1 0x40 MLOAD PUSH32 0x8C379A000000000000000000000000000000000000000000000000000000000 DUP2 MSTORE PUSH1 0x4 ADD PUSH2 0x302 SWAP1 PUSH2 0x929 JUMP JUMPDEST PUSH1 0x40 MLOAD DUP1 SWAP2 SUB SWAP1 REVERT JUMPDEST PUSH0 PUSH1 0x1 SLOAD GT PUSH2 0x34F JUMPI PUSH1 0x40 MLOAD PUSH32 0x8C379A000000000000000000000000000000000000000000000000000000000 DUP2 MSTORE PUSH1 0x4 ADD PUSH2 0x346 SWAP1 PUSH2 0x991 JUMP JUMPDEST PUSH1 0x40 MLOAD DUP1 SWAP2 SUB SWAP1 REVERT JUMPDEST PUSH0 JUMPDEST PUSH1 0x3 DUP1 SLOAD SWAP1 POP DUP2 LT ISZERO PUSH2 0x458 JUMPI PUSH0 PUSH1 0x3 DUP3 DUP2 SLOAD DUP2 LT PUSH2 0x373 JUMPI PUSH2 0x372 PUSH2 0x9AF JUMP JUMPDEST JUMPDEST SWAP1 PUSH0 MSTORE PUSH1 0x20 PUSH0 KECCAK256 ADD PUSH0 SWAP1 SLOAD SWAP1 PUSH2 0x100 EXP SWAP1 DIV PUSH20 0xFFFFFFFFFFFFFFFFFFFFFFFFFFFFFFFFFFFFFFFF AND SWAP1 POP PUSH0 PUSH1 0x2 PUSH0 DUP4 PUSH20 0xFFFFFFFFFFFFFFFFFFFFFFFFFFFFFFFFFFFFFFFF AND PUSH20 0xFFFFFFFFFFFFFFFFFFFFFFFFFFFFFFFFFFFFFFFF AND DUP2 MSTORE PUSH1 0x20 ADD SWAP1 DUP2 MSTORE PUSH1 0x20 ADD PUSH0 KECCAK256 SLOAD SWAP1 POP PUSH0 DUP2 GT ISZERO PUSH2 0x449 JUMPI PUSH0 PUSH1 0x64 DUP3 PUSH1 0x1 SLOAD PUSH2 0x3F7 SWAP2 SWAP1 PUSH2 0xA09 JUMP JUMPDEST PUSH2 0x401 SWAP2 SWAP1 PUSH2 0xA77 JUMP JUMPDEST SWAP1 POP DUP3 PUSH20 0xFFFFFFFFFFFFFFFFFFFFFFFFFFFFFFFFFFFFFFFF AND PUSH2 0x8FC DUP3 SWAP1 DUP2 ISZERO MUL SWAP1 PUSH1 0x40 MLOAD PUSH0 PUSH1 0x40 MLOAD DUP1 DUP4 SUB DUP2 DUP6 DUP9 DUP9 CALL SWAP4 POP POP POP POP ISZERO DUP1 ISZERO PUSH2 0x446 JUMPI RETURNDATASIZE PUSH0 DUP1 RETURNDATACOPY RETURNDATASIZE PUSH0 REVERT JUMPDEST POP POP JUMPDEST POP POP DUP1 DUP1 PUSH1 0x1 ADD SWAP2 POP POP PUSH2 0x351 JUMP JUMPDEST POP PUSH32 0x7BFB78E8A6C87B77BC7AD47EE02092F528A4B0E762784170F0BC3ED1A4A4A084 PUSH1 0x40 MLOAD PUSH1 0x40 MLOAD DUP1 SWAP2 SUB SWAP1 LOG1 PUSH0 PUSH1 0x1 DUP2 SWAP1 SSTORE POP JUMP JUMPDEST PUSH1 0x1 SLOAD DUP2 JUMP JUMPDEST PUSH0 DUP1 SLOAD SWAP1 PUSH2 0x100 EXP SWAP1 DIV PUSH20 0xFFFFFFFFFFFFFFFFFFFFFFFFFFFFFFFFFFFFFFFF AND DUP2 JUMP JUMPDEST PUSH0 DUP1 SLOAD SWAP1 PUSH2 0x100 EXP SWAP1 DIV PUSH20 0xFFFFFFFFFFFFFFFFFFFFFFFFFFFFFFFFFFFFFFFF AND PUSH20 0xFFFFFFFFFFFFFFFFFFFFFFFFFFFFFFFFFFFFFFFF AND CALLER PUSH20 0xFFFFFFFFFFFFFFFFFFFFFFFFFFFFFFFFFFFFFFFF AND EQ PUSH2 0x544 JUMPI PUSH1 0x40 MLOAD PUSH32 0x8C379A000000000000000000000000000000000000000000000000000000000 DUP2 MSTORE PUSH1 0x4 ADD PUSH2 0x53B SWAP1 PUSH2 0x929 JUMP JUMPDEST PUSH1 0x40 MLOAD DUP1 SWAP2 SUB SWAP1 REVERT JUMPDEST PUSH0 DUP2 GT PUSH2 0x586 JUMPI PUSH1 0x40 MLOAD PUSH32 0x8C379A000000000000000000000000000000000000000000000000000000000 DUP2 MSTORE PUSH1 0x4 ADD PUSH2 0x57D SWAP1 PUSH2 0xAF1 JUMP JUMPDEST PUSH1 0x40 MLOAD DUP1 SWAP2 SUB SWAP1 REVERT JUMPDEST PUSH0 PUSH1 0x2 PUSH0 DUP5 PUSH20 0xFFFFFFFFFFFFFFFFFFFFFFFFFFFFFFFFFFFFFFFF AND PUSH20 0xFFFFFFFFFFFFFFFFFFFFFFFFFFFFFFFFFFFFFFFF AND DUP2 MSTORE PUSH1 0x20 ADD SWAP1 DUP2 MSTORE PUSH1 0x20 ADD PUSH0 KECCAK256 SLOAD EQ PUSH2 0x605 JUMPI PUSH1 0x40 MLOAD PUSH32 0x8C379A000000000000000000000000000000000000000000000000000000000 DUP2 MSTORE PUSH1 0x4 ADD PUSH2 0x5FC SWAP1 PUSH2 0xB59 JUMP JUMPDEST PUSH1 0x40 MLOAD DUP1 SWAP2 SUB SWAP1 REVERT JUMPDEST DUP1 PUSH1 0x2 PUSH0 DUP5 PUSH20 0xFFFFFFFFFFFFFFFFFFFFFFFFFFFFFFFFFFFFFFFF AND PUSH20 0xFFFFFFFFFFFFFFFFFFFFFFFFFFFFFFFFFFFFFFFF AND DUP2 MSTORE PUSH1 0x20 ADD SWAP1 DUP2 MSTORE PUSH1 0x20 ADD PUSH0 KECCAK256 DUP2 SWAP1 SSTORE POP PUSH1 0x3 DUP3 SWAP1 DUP1 PUSH1 0x1 DUP2 SLOAD ADD DUP1 DUP3 SSTORE DUP1 SWAP2 POP POP PUSH1 0x1 SWAP1 SUB SWAP1 PUSH0 MSTORE PUSH1 0x20 PUSH0 KECCAK256 ADD PUSH0 SWAP1 SWAP2 SWAP1 SWAP2 SWAP1 SWAP2 PUSH2 0x100 EXP DUP2 SLOAD DUP2 PUSH20 0xFFFFFFFFFFFFFFFFFFFFFFFFFFFFFFFFFFFFFFFF MUL NOT AND SWAP1 DUP4 PUSH20 0xFFFFFFFFFFFFFFFFFFFFFFFFFFFFFFFFFFFFFFFF AND MUL OR SWAP1 SSTORE POP PUSH32 0x53ECD725315076D49DE41E105A400B4659B4EB2060F6677E74E2A4CB645B4785 DUP3 DUP3 PUSH1 0x40 MLOAD PUSH2 0x6D8 SWAP3 SWAP2 SWAP1 PUSH2 0xB77 JUMP JUMPDEST PUSH1 0x40 MLOAD DUP1 SWAP2 SUB SWAP1 LOG1 POP POP JUMP JUMPDEST PUSH1 0x3 DUP2 DUP2 SLOAD DUP2 LT PUSH2 0x6F3 JUMPI PUSH0 DUP1 REVERT JUMPDEST SWAP1 PUSH0 MSTORE PUSH1 0x20 PUSH0 KECCAK256 ADD PUSH0 SWAP2 POP SLOAD SWAP1 PUSH2 0x100 EXP SWAP1 DIV PUSH20 0xFFFFFFFFFFFFFFFFFFFFFFFFFFFFFFFFFFFFFFFF AND DUP2 JUMP JUMPDEST PUSH1 0x2 PUSH1 0x20 MSTORE DUP1 PUSH0 MSTORE PUSH1 0x40 PUSH0 KECCAK256 PUSH0 SWAP2 POP SWAP1 POP SLOAD DUP2 JUMP JUMPDEST PUSH0 DUP1 REVERT JUMPDEST PUSH0 DUP2 SWAP1 POP SWAP2 SWAP1 POP JUMP JUMPDEST PUSH2 0x74A DUP2 PUSH2 0x738 JUMP JUMPDEST DUP2 EQ PUSH2 0x754 JUMPI PUSH0 DUP1 REVERT JUMPDEST POP JUMP JUMPDEST PUSH0 DUP2 CALLDATALOAD SWAP1 POP PUSH2 0x765 DUP2 PUSH2 0x741 JUMP JUMPDEST SWAP3 SWAP2 POP POP JUMP JUMPDEST PUSH0 PUSH1 0x20 DUP3 DUP5 SUB SLT ISZERO PUSH2 0x780 JUMPI PUSH2 0x77F PUSH2 0x734 JUMP JUMPDEST JUMPDEST PUSH0 PUSH2 0x78D DUP5 DUP3 DUP6 ADD PUSH2 0x757 JUMP JUMPDEST SWAP2 POP POP SWAP3 SWAP2 POP POP JUMP JUMPDEST PUSH2 0x79F DUP2 PUSH2 0x738 JUMP JUMPDEST DUP3 MSTORE POP POP JUMP JUMPDEST PUSH0 PUSH1 0x20 DUP3 ADD SWAP1 POP PUSH2 0x7B8 PUSH0 DUP4 ADD DUP5 PUSH2 0x796 JUMP JUMPDEST SWAP3 SWAP2 POP POP JUMP JUMPDEST PUSH0 PUSH20 0xFFFFFFFFFFFFFFFFFFFFFFFFFFFFFFFFFFFFFFFF DUP3 AND SWAP1 POP SWAP2 SWAP1 POP JUMP JUMPDEST PUSH0 PUSH2 0x7E7 DUP3 PUSH2 0x7BE JUMP JUMPDEST SWAP1 POP SWAP2 SWAP1 POP JUMP JUMPDEST PUSH2 0x7F7 DUP2 PUSH2 0x7DD JUMP JUMPDEST DUP3 MSTORE POP POP JUMP JUMPDEST PUSH0 PUSH1 0x20 DUP3 ADD SWAP1 POP PUSH2 0x810 PUSH0 DUP4 ADD DUP5 PUSH2 0x7EE JUMP JUMPDEST SWAP3 SWAP2 POP POP JUMP JUMPDEST PUSH2 0x81F DUP2 PUSH2 0x7DD JUMP JUMPDEST DUP2 EQ PUSH2 0x829 JUMPI PUSH0 DUP1 REVERT JUMPDEST POP JUMP JUMPDEST PUSH0 DUP2 CALLDATALOAD SWAP1 POP PUSH2 0x83A DUP2 PUSH2 0x816 JUMP JUMPDEST SWAP3 SWAP2 POP POP JUMP JUMPDEST PUSH0 DUP1 PUSH1 0x40 DUP4 DUP6 SUB SLT ISZERO PUSH2 0x856 JUMPI PUSH2 0x855 PUSH2 0x734 JUMP JUMPDEST JUMPDEST PUSH0 PUSH2 0x863 DUP6 DUP3 DUP7 ADD PUSH2 0x82C JUMP JUMPDEST SWAP3 POP POP PUSH1 0x20 PUSH2 0x874 DUP6 DUP3 DUP7 ADD PUSH2 0x757 JUMP JUMPDEST SWAP2 POP POP SWAP3 POP SWAP3 SWAP1 POP JUMP JUMPDEST PUSH0 PUSH1 0x20 DUP3 DUP5 SUB SLT ISZERO PUSH2 0x893 JUMPI PUSH2 0x892 PUSH2 0x734 JUMP JUMPDEST JUMPDEST PUSH0 PUSH2 0x8A0 DUP5 DUP3 DUP6 ADD PUSH2 0x82C JUMP JUMPDEST SWAP2 POP POP SWAP3 SWAP2 POP POP JUMP JUMPDEST PUSH0 DUP3 DUP3 MSTORE PUSH1 0x20 DUP3 ADD SWAP1 POP SWAP3 SWAP2 POP POP JUMP JUMPDEST PUSH32 0x4F6E6C79206F776E65722063616E2063616C6C20746869732066756E6374696F PUSH0 DUP3 ADD MSTORE PUSH32 0x6E2E000000000000000000000000000000000000000000000000000000000000 PUSH1 0x20 DUP3 ADD MSTORE POP JUMP JUMPDEST PUSH0 PUSH2 0x913 PUSH1 0x22 DUP4 PUSH2 0x8A9 JUMP JUMPDEST SWAP2 POP PUSH2 0x91E DUP3 PUSH2 0x8B9 JUMP JUMPDEST PUSH1 0x40 DUP3 ADD SWAP1 POP SWAP2 SWAP1 POP JUMP JUMPDEST PUSH0 PUSH1 0x20 DUP3 ADD SWAP1 POP DUP2 DUP2 SUB PUSH0 DUP4 ADD MSTORE PUSH2 0x940 DUP2 PUSH2 0x907 JUMP JUMPDEST SWAP1 POP SWAP2 SWAP1 POP JUMP JUMPDEST PUSH32 0x546F74616C20696E6865726974616E6365206D757374206265207365742E0000 PUSH0 DUP3 ADD MSTORE POP JUMP JUMPDEST PUSH0 PUSH2 0x97B PUSH1 0x1E DUP4 PUSH2 0x8A9 JUMP JUMPDEST SWAP2 POP PUSH2 0x986 DUP3 PUSH2 0x947 JUMP JUMPDEST PUSH1 0x20 DUP3 ADD SWAP1 POP SWAP2 SWAP1 POP JUMP JUMPDEST PUSH0 PUSH1 0x20 DUP3 ADD SWAP1 POP DUP2 DUP2 SUB PUSH0 DUP4 ADD MSTORE PUSH2 0x9A8 DUP2 PUSH2 0x96F JUMP JUMPDEST SWAP1 POP SWAP2 SWAP1 POP JUMP JUMPDEST PUSH32 0x4E487B7100000000000000000000000000000000000000000000000000000000 PUSH0 MSTORE PUSH1 0x32 PUSH1 0x4 MSTORE PUSH1 0x24 PUSH0 REVERT JUMPDEST PUSH32 0x4E487B7100000000000000000000000000000000000000000000000000000000 PUSH0 MSTORE PUSH1 0x11 PUSH1 0x4 MSTORE PUSH1 0x24 PUSH0 REVERT JUMPDEST PUSH0 PUSH2 0xA13 DUP3 PUSH2 0x738 JUMP JUMPDEST SWAP2 POP PUSH2 0xA1E DUP4 PUSH2 0x738 JUMP JUMPDEST SWAP3 POP DUP3 DUP3 MUL PUSH2 0xA2C DUP2 PUSH2 0x738 JUMP JUMPDEST SWAP2 POP DUP3 DUP3 DIV DUP5 EQ DUP4 ISZERO OR PUSH2 0xA43 JUMPI PUSH2 0xA42 PUSH2 0x9DC JUMP JUMPDEST JUMPDEST POP SWAP3 SWAP2 POP POP JUMP JUMPDEST PUSH32 0x4E487B7100000000000000000000000000000000000000000000000000000000 PUSH0 MSTORE PUSH1 0x12 PUSH1 0x4 MSTORE PUSH1 0x24 PUSH0 REVERT JUMPDEST PUSH0 PUSH2 0xA81 DUP3 PUSH2 0x738 JUMP JUMPDEST SWAP2 POP PUSH2 0xA8C DUP4 PUSH2 0x738 JUMP JUMPDEST SWAP3 POP DUP3 PUSH2 0xA9C JUMPI PUSH2 0xA9B PUSH2 0xA4A JUMP JUMPDEST JUMPDEST DUP3 DUP3 DIV SWAP1 POP SWAP3 SWAP2 POP POP JUMP JUMPDEST PUSH32 0x5368617265206D7573742062652067726561746572207468616E207A65726F2E PUSH0 DUP3 ADD MSTORE POP JUMP JUMPDEST PUSH0 PUSH2 0xADB PUSH1 0x20 DUP4 PUSH2 0x8A9 JUMP JUMPDEST SWAP2 POP PUSH2 0xAE6 DUP3 PUSH2 0xAA7 JUMP JUMPDEST PUSH1 0x20 DUP3 ADD SWAP1 POP SWAP2 SWAP1 POP JUMP JUMPDEST PUSH0 PUSH1 0x20 DUP3 ADD SWAP1 POP DUP2 DUP2 SUB PUSH0 DUP4 ADD MSTORE PUSH2 0xB08 DUP2 PUSH2 0xACF JUMP JUMPDEST SWAP1 POP SWAP2 SWAP1 POP JUMP JUMPDEST PUSH32 0x4865697220616C72656164792061646465642E00000000000000000000000000 PUSH0 DUP3 ADD MSTORE POP JUMP JUMPDEST PUSH0 PUSH2 0xB43 PUSH1 0x13 DUP4 PUSH2 0x8A9 JUMP JUMPDEST SWAP2 POP PUSH2 0xB4E DUP3 PUSH2 0xB0F JUMP JUMPDEST PUSH1 0x20 DUP3 ADD SWAP1 POP SWAP2 SWAP1 POP JUMP JUMPDEST PUSH0 PUSH1 0x20 DUP3 ADD SWAP1 POP DUP2 DUP2 SUB PUSH0 DUP4 ADD MSTORE PUSH2 0xB70 DUP2 PUSH2 0xB37 JUMP JUMPDEST SWAP1 POP SWAP2 SWAP1 POP JUMP JUMPDEST PUSH0 PUSH1 0x40 DUP3 ADD SWAP1 POP PUSH2 0xB8A PUSH0 DUP4 ADD DUP6 PUSH2 0x7EE JUMP JUMPDEST PUSH2 0xB97 PUSH1 0x20 DUP4 ADD DUP5 PUSH2 0x796 JUMP JUMPDEST SWAP4 SWAP3 POP POP POP JUMP INVALID LOG2 PUSH5 0x6970667358 0x22 SLT KECCAK256 0x4C ADDMOD DUP16 CALLCODE CALL 0xF9 SWAP3 0xE5 BASEFEE 0xB9 JUMPI 0xE4 0xB5 AND 0xC7 GASPRICE PUSH11 0xA7E3B25B8664770B0918A5 PUSH20 0xC1594D64736F6C634300081A0033000000000000 "
				},
				"gasEstimates": {
					"creation": {
						"codeDepositCost": "605600",
						"executionCost": "24901",
						"totalCost": "630501"
					},
					"external": {
						"addHeir(address,uint256)": "infinite",
						"distributeInheritance()": "infinite",
						"heirs(address)": "2868",
						"heirsList(uint256)": "4988",
						"owner()": "2505",
						"setInheritance(uint256)": "infinite",
						"totalInheritance()": "2470"
					}
				},
				"methodIdentifiers": {
					"addHeir(address,uint256)": "9cdd47f2",
					"distributeInheritance()": "53a41b50",
					"heirs(address)": "f45b587c",
					"heirsList(uint256)": "aefad0b2",
					"owner()": "8da5cb5b",
					"setInheritance(uint256)": "14c7f2e9",
					"totalInheritance()": "80369a9b"
				}
			},
			"storageLayout": {
				"storage": [
					{
						"astId": 3,
						"contract": "tips.sol:Inheritance",
						"label": "owner",
						"offset": 0,
						"slot": "0",
						"type": "t_address"
					},
					{
						"astId": 5,
						"contract": "tips.sol:Inheritance",
						"label": "totalInheritance",
						"offset": 0,
						"slot": "1",
						"type": "t_uint256"
					},
					{
						"astId": 9,
						"contract": "tips.sol:Inheritance",
						"label": "heirs",
						"offset": 0,
						"slot": "2",
						"type": "t_mapping(t_address,t_uint256)"
					},
					{
						"astId": 12,
						"contract": "tips.sol:Inheritance",
						"label": "heirsList",
						"offset": 0,
						"slot": "3",
						"type": "t_array(t_address)dyn_storage"
					}
				],
				"types": {
					"t_address": {
						"encoding": "inplace",
						"label": "address",
						"numberOfBytes": "20"
					},
					"t_array(t_address)dyn_storage": {
						"base": "t_address",
						"encoding": "dynamic_array",
						"label": "address[]",
						"numberOfBytes": "32"
					},
					"t_mapping(t_address,t_uint256)": {
						"encoding": "mapping",
						"key": "t_address",
						"label": "mapping(address => uint256)",
						"numberOfBytes": "32",
						"value": "t_uint256"
					},
					"t_uint256": {
						"encoding": "inplace",
						"label": "uint256",
						"numberOfBytes": "32"
					}
				}
			},
			"userdoc": {
				"kind": "user",
				"methods": {},
				"version": 1
			}
		}
	}
}